:040000003DEFADF033
:10FA70000000000000000000000000000000000086
:10FA8000005F000000000000000000070000000709
:10FA9000000000000014007F0014007F001400002C
:10FAA0000024002A007F002A0012000000630013D7
:10FAB0000008006400630000003600490056002082
:10FAC00000500000000000000007000000000000DF
:10FAD0000000001C00220041000000000000004166
:10FAE0000022001C000000000014001C003E001C4E
:10FAF0000014000000080008003E00080008000094
:10FB00000000000000A000600000000000080008E5
:10FB1000000800080008000000000000006000600D
:10FB20000000000000600010000800040003000056
:10FB3000003E005100490045003E00000000004228
:10FB4000007F0040000000000042006100510049B9
:10FB50000046000000220041004900490036000034
:10FB6000000C000A0009007F00080000002F00457B
:10FB70000045004500390000003E004900490049A9
:10FB800000320000000100010071000D00030000C0
:10FB900000360049004900490036000000260049AF
:10FBA00000490049003E000000000000006C006CAD
:10FBB000000000000000000000AC006C000000002D
:10FBC000000800140022004100000000001400148E
:10FBD0000014001400140000000000410022001472
:10FBE000000800000002000100B10009000600004A
:10FBF000003E004100590055001E0000007C000A34
:10FC00000009000A007C0000007F0049004900490B
:10FC100000360000003E004100410041002200008B
:10FC2000007F004100410022001C0000007F0049CD
:10FC30000049004100410000007F00090009000167
:10FC400000010000003E004100490049003A000068
:10FC5000007F000800080008007F0000000000414D
:10FC6000007F004100000000002000400040003FF5
:10FC700000000000007F0008001400220041000086
:10FC8000007F00400040004000400000007F000274
:10FC9000000C0002007F0000007F0004000800103C
:10FCA000007F0000003E004100410041003E000096
:10FCB000007F00090009000900060000003E004125
:10FCC00000510021005E0000007F0009001900299A
:10FCD00000460000002600490049004900320000AB
:10FCE00000010001007F000100010000003F004012
:10FCF00000400040003F00000003001C0060001CAA
:10FD000000030000000F0070000F0070000F0000E3
:10FD100000630014000800140063000000030004E6
:10FD20000078000400030000006100510049004514
:10FD3000004300000000007F00410041000000007F
:10FD400000030004000800100060000000000041F3
:10FD50000041007F000000000004000200010002DA
:10FD6000000400000080008000800080008000808F
:10FD7000000000010002000400000000000000324A
:10FD8000004A004A007C00000000007E0048004855
:10FD90000030000000000030004800480000000073
:10FDA0000000003000480048007E000000000038DD
:10FDB00000540054001800000008007C000A0002F3
:10FDC000000000000000009000A800A800780000DB
:10FDD0000000007C00100010006000000000000027
:10FDE000007400000000000000000080008000742B
:10FDF000000000000000007E001000280044000009
:10FE000000000000007E00000000000000780008F4
:10FE10000070000800700000000000780008000872
:10FE20000070000000000030004800480030000072
:10FE3000000000F80028002800100000000000105A
:10FE40000028002800F800000000007800080008E2
:10FE5000000000000000004800540054002400008E
:10FE600000000008007C00080000000000000038CE
:10FE70000040004000780000000C003000400030DE
:10FE8000000C0000001C0060001C0060001C000052
:10FE9000004400280010002800440000004400280E
:10FEA000001000080004000000000064005400542A
:10FEB000004C000000000008003600410000000077
:10FEC00000000000007F0000000000000000004172
:10FED00000360008000000000002000100020004DB
:10FEE0000002000000FF00FF00FF00FF00FF00FF16
:10FEF00000445C01E65B01D65B01D44A01804E01FF
:10FF0000385C010652019C5C01945C018C5C0184AC
:10FF10005C017C5C01745C016C5C012C5C015654DE
:10FF20000154656D70657261747572653A20256C57
:10FF300075200950726573737572653A20256C756A
:10FF40000948756D69646974793A20256C752025B6
:10FF5000250054656D70657261747572653A200094
:10FF6000466F72636564206D6F6465004E6F726DDD
:10FF7000616C206D6F646500507265737375726596
:10FF80003A200048756D69646974793A2000536CB1
:10FF9000656570206D6F64650031303030206D73A1
:10FFA0000036322E35206D7300353030206D7300F1
:10FFB000323530206D7300302E35206D73003132B4
:10FFC00035206D73003130206D73003230206D7339
:10FFD00000494E46004E414E00696E66006E616EED
:10FFE00000783136004F4646006C66006C7500257F
:0FFFF000660078310078320078340078380000ED
:020000040001F9
:10000000000E00017B6F000E7A6F3EC08CF03FC087
:100010008DF040C08EF041C08FF08FBF14EF80F0A4
:1000200012EF80F02AEF80F0000E7B6F010E7A6FE6
:100030008CC001F08DC002F08EC003F08FC004F0C0
:100040005AECACF001C08CF002C08DF003C08EF011
:1000500004C08FF0000E0001936F000E926FEEC08F
:100060007EF0EFC07FF07A517B11D8A43AEF80F098
:100070003CEF80F043EF80F0F2A541EF80F043EFDA
:1000800080F05DEF80F07A517B11D8A44AEF80F0C8
:100090004CEF80F052EF80F0000E616F2B0E606F1E
:1000A00056EF80F0000E616F2D0E606F60C076F12C
:1000B000924B932B7E07D8A07F078CC001F08DC098
:1000C00002F08EC003F08FC004F03EECA3F00104F8
:1000D0000210D8A46EEF80F070EF80F0C7EF80F0D0
:1000E000BF0E436EFF0E446E4250456E466A43504B
:1000F00045264450462246500AE11A0E455CD8A0D7
:1001000084EF80F087EF80F0010E88EF80F0000E22
:100110000001626F636B62516311D8B492EF80F09B
:1001200094EF80F0A2EF80F0760E9225016E010E22
:100130009321026ED10E036EFF0E046EF9ECAAF04D
:10014000AEEF80F0760E9225016E010E9321026EC5
:10015000D90E036EFF0E046EF9ECAAF00001FD0E3D
:100160007E27FF0E7F233CC013F03DC014F0760EB7
:10017000156E010E166E7EC017F07FC018F0CEEC23
:10018000A5F013C03CF014C03DF02BEF86F08CC0FE
:1001900001F08DC002F08EC003F08FC004F03EEC81
:1001A000A3F001500210D8A4D8EF80F0DAEF80F06D
:1001B0001AEF81F0BF0E436EFF0E446E4250456E43
:1001C000466A435045264450462246500AE11A0EDC
:1001D000455CD8A0EEEF80F0F1EF80F0010EF2EF79
:1001E00080F0000E0001646F656B64516511D8B436
:1001F000FCEF80F0FEEF80F00CEF81F0760E9225A0
:10020000016E010E9321026ED50E036EFF0E046E79
:10021000F9ECAAF0AEEF80F0760E9225016E010E99
:100220009321026EDD0E036EFF0E046EF9ECAAF050
:10023000AEEF80F0000E0001946F000E956F800EFF
:10024000966F3F0E976F000E916F000E906F8CC0EF
:1002500001F08DC002F08EC003F08FC004F0000EDC
:10026000056E000E066E000E076E000E086EEBECBB
:10027000A6F0D8B03EEF81F040EF81F0C3EF81F0FF
:100280005FEF81F094C001F095C002F096C003F0DA
:1002900097C004F0000E056E000E066E200E076E6D
:1002A000410E086ED5EC94F001C094F002C095F0B8
:1002B00003C096F004C097F00001904B912B8CC0C6
:1002C0001AF08DC01BF08EC01CF08FC01DF0000E08
:1002D000056E000E066E200E076E410E086E94C06D
:1002E00001F095C002F096C003F097C004F0D5EC81
:1002F00094F001C01EF002C01FF003C020F004C043
:1003000021F0BCECA2F0D8B088EF81F08AEF81F048
:1003100042EF81F0AAEF81F094C00FF095C010F089
:1003200096C011F097C012F0000E136E000E146EFE
:10033000200E156E410E166EEAEC96F00FC094F08A
:1003400010C095F011C096F012C097F00001900710
:10035000D8A091078CC01AF08DC01BF08EC01CF085
:100360008FC01DF094C01EF095C01FF096C020F005
:1003700097C021F0BCECA2F0D8A0C1EF81F0C3EF90
:1003800081F08CEF81F042C007F0086AC9ECAAF056
:1003900007500001816F81C080F0670E8119D8A4D9
:1003A000D4EF81F0D6EF81F0FCEF81F0F051F11144
:1003B000D8A4DDEF81F0DFEF81F0E3EF81F0000EF4
:1003C000F16F010EF06FF1BFF0EF81F0F15106E136
:1003D000F005D8B0EEEF81F0F0EF81F0F6EF81F0AC
:1003E000000E7D6F060E7C6F05EF82F0F0C07CF092
:1003F000F1C07DF005EF82F0F1BF01EF82F003EF75
:1004000082F0F0EF81F0F6EF81F0670E8119D8A449
:100410000CEF82F00EEF82F03DEF82F091AF1CEF17
:1004200082F0FC0E905DFF0E9159D8A01AEF82F079
:100430001CEF82F03BEF82F0FF0E436EFF0E446E26
:100440007CC045F07DC046F04350452644504622CE
:100450009051455C4650800A476E9151800A47583A
:10046000D8A035EF82F037EF82F03BEF82F0660ED6
:10047000806F3DEF82F0650E806F7CC072F07DC0B2
:1004800073F0670E8119D8A448EF82F04AEF82F02A
:100490005AEF82F0660E8019D8A451EF82F053EF24
:1004A00082F05CEF82F091BF5AEF82F058EF82F059
:1004B0005CEF82F0724B732B660E8019D8A463EF49
:1004C00082F065EF82F085EF82F091BF6CEF82F0F1
:1004D0006AEF82F078EF82F0000E946F000E956F55
:1004E000800E966F3F0E976F000E916F000E906F0B
:1004F000670E8119D8B47FEF82F081EF82F085EF2B
:1005000082F09051722791517323000E8B6F000E71
:100510008A6F8CC082F08DC083F08EC084F08FC053
:1005200085F094C074F095C075F096C076F097C0D1
:1005300077F016EF83F082C00FF083C010F084C014
:1005400011F085C012F094C013F095C014F096C05D
:1005500015F097C016F0EAEC96F00FC028F010C026
:1005600029F011C02AF012C02BF04EEC9AF028C0EE
:1005700086F029C087F02AC088F02BC089F086C099
:1005800001F087C002F088C003F089C004F039ECA4
:10059000A2F001C078F002C079F082C01AF083C0E6
:1005A0001BF084C01CF085C01DF094C005F095C000
:1005B00006F096C007F097C008F086C001F087C02B
:1005C00002F088C003F089C004F0D5EC94F001C0BB
:1005D0001EF002C01FF003C020F004C021F077EC31
:1005E000ABF01AC082F01BC083F01CC084F01DC0A9
:1005F00085F094C00FF095C010F096C011F097C030
:1006000012F0000E136E000E146E200E156E410EC9
:10061000166EEAEC96F00FC094F010C095F011C081
:1006200096F012C097F000018A4B8B2B72518A5DB5
:100630008B51800A436E7351800A4358D8A023EF30
:1006400083F025EF83F09BEF82F094C001F095C01A
:1006500002F096C003F097C004F0000E056E000E85
:10066000066EA00E076E400E086ED5EC94F001C029
:1006700086F002C087F003C088F004C089F082C011
:100680001AF083C01BF084C01CF085C01DF086C02A
:100690001EF087C01FF088C020F089C021F0BCEC9C
:1006A000A2F0D8B056EF83F058EF83F063EF83F0F9
:1006B000000E0001866F000E876F000E886F000E1F
:1006C000896F8CEF83F082C001F083C002F084C098
:1006D00003F085C004F086C005F087C006F088C02E
:1006E00007F089C008F0EBECA6F0D8A07AEF83F011
:1006F0007CEF83F08CEF83F0000178B182EF83F020
:1007000084EF83F08CEF83F0000E866F000E876F0E
:10071000000E886F000E896F8CC001F08DC002F052
:100720008EC003F08FC004F086C005F087C006F0CD
:1007300088C007F089C008F01EEC90F001C082F07C
:1007400002C083F003C084F004C085F082C01AF0B8
:1007500083C01BF084C01CF085C01DF0000E056E28
:10076000000E066E200E076E410E086E74C001F07A
:1007700075C002F076C003F077C004F0D5EC94F0B9
:1007800001C01EF002C01FF003C020F004C021F021
:10079000BCECA2F0D8A0CFEF83F0D1EF83F0FAEF5A
:1007A00083F00001904B912B74C001F075C002F0F2
:1007B00076C003F077C004F0000E056E000E066EE2
:1007C000200E076E410E086ED5EC94F001C074F057
:1007D00002C075F003C076F004C077F0660E000129
:1007E0008019D8A4F6EF83F0F8EF83F0FAEF83F0E6
:1007F000724B732B74C094F075C095F076C096F070
:1008000077C097F0650E00018019D8B40AEF84F024
:100810000CEF84F012EF84F090C070F091C071F092
:1008200016EF84F0000E716F000E706F000E6F6F88
:10083000000E6E6F000E6D6F000E6C6F000E8B6FF2
:10084000000E8A6F11EF85F082C00FF083C010F0A8
:1008500084C011F085C012F094C013F095C014F05C
:1008600096C015F097C016F0EAEC96F00FC028F08D
:1008700010C029F011C02AF012C02BF04EEC9AF0F3
:1008800028C086F029C087F02AC088F02BC089F0E4
:1008900086C001F087C002F088C003F089C004F070
:1008A00039ECA2F001C078F002C079F00001F2B991
:1008B0005CEF84F05EEF84F07BEF84F07851791187
:1008C000D8A465EF84F067EF84F07BEF84F0670EC7
:1008D0008119D8A46EEF84F070EF84F07BEF84F080
:1008E00071BF77EF84F075EF84F07BEF84F06C4B91
:1008F0006D2BC5EF84F06E516F11D8A482EF84F098
:1009000084EF84F0AEEF84F071BF8BEF84F089EF59
:1009100084F0AEEF84F0760E9225D96E010E93210D
:10092000DA6E2E0EDF6E924B932B7E07D8A07F07D8
:10093000000E6F6F010E6E6FAEEF84F0760E922593
:10094000D96E010E9321DA6E300EDF6E924B932B2F
:100950007E07D8A07F076C07D8A06D076C516D117A
:10096000D8A4B5EF84F0B7EF84F09EEF84F0760E54
:100970009225D96E010E9321DA6E7851300FDF6E19
:10098000924B932B7E07D8A07F0782C01AF083C0BA
:100990001BF084C01CF085C01DF094C005F095C00C
:1009A00006F096C007F097C008F086C001F087C037
:1009B00002F088C003F089C004F0D5EC94F001C0C7
:1009C0001EF002C01FF003C020F004C021F077EC3D
:1009D000ABF01AC082F01BC083F01CC084F01DC0B5
:1009E00085F094C00FF095C010F096C011F097C03C
:1009F00012F0000E136E000E146E200E156E410ED6
:100A0000166EEAEC96F00FC094F010C095F011C08D
:100A100096F012C097F000017007D8A071078A4BBA
:100A20008B2B72518A5D8B51800A436E7351800A01
:100A30004358D8B01EEF85F020EF85F02EEF85F0FB
:100A400093BF2CEF85F0935109E14B0E925DD8A036
:100A50002CEF85F02EEF85F024EF84F06E516F11AE
:100A6000D8A435EF85F037EF85F048EF85F0F2A98F
:100A70003CEF85F03EEF85F048EF85F0760E92254D
:100A8000D96E010E9321DA6E2E0EDF6E924B932BF0
:100A9000760E9225D96E010E9321DA6E000EDF6E6E
:100AA000650E8019D8A457EF85F059EF85F0B3EFA4
:100AB00080F0000E8B6F4F0E8A6F760E8A25D96EEE
:100AC000010E8B21DA6E000EDF6E000E7B6F000EC2
:100AD0007A6F91BF70EF85F06EEF85F078EF85F05B
:100AE000000E7B6F010E7A6F906D911FD8B0912B25
:100AF000000E7D6F020E7C6FA9EF85F08A07D8A0EB
:100B00008B07760E8A25D96E010E8B21DA6E90C086
:100B100001F091C002F0000E046E0A0E036E93EC19
:100B2000A6F00150300FDF6E90C001F091C002F0CE
:100B3000000E046E0A0E036E31ECA6F001C090F0B8
:100B400002C091F000017C07D8A07D077E07D8A0E5
:100B50007F0790519111D8A4B0EF85F0B2EF85F0E6
:100B60007EEF85F07DBFBFEF85F07D5106E17C050E
:100B7000D8B0BDEF85F0BFEF85F07EEF85F08A0736
:100B8000D8A08B077A517B11D8A4C9EF85F0CBEFA1
:100B900085F0D1EF85F0000E676F2B0E666FD5EFF5
:100BA00085F0000E676F2D0E666F760E8A25D96E62
:100BB000010E8B21DA6E66C0DFFF7E07D8A07F07AB
:100BC0008A07D8A08B07BF0E436EFF0E446E4250BB
:100BD000456E466A435045264450462246500AE137
:100BE0001A0E455CD8A0F7EF85F0FAEF85F0010EFC
:100BF000FBEF85F0000E6A6F6B6B6A516B11D8A426
:100C000004EF86F006EF86F00CEF86F0000E696FB9
:100C1000650E686F10EF86F0000E696F450E686F05
:100C2000760E8A25D96E010E8B21DA6E68C0DFFF41
:100C30007E07D8A07F07760E9225016E010E9321C4
:100C4000026E760E8A25036E010E8B21046EF9EC7E
:100C5000AAF0B3EF80F01200B00E3D6EAD0E3E6E06
:100C6000010E3F6E000E406E20EE21F01D50D92681
:100C70001E50DA22DECF0DF0DECF0EF0DECF0FF009
:100C8000DECF10F0020E116E000E126E000E136E0B
:100C9000000E146E2EECA1F0000E0D244D6E060E0B
:100CA0000E204E6EFF0E0F204F6EFF0E1020506E66
:100CB000040E116E000E126E000E136E000E146EF6
:100CC0004DC00DF04EC00EF04FC00FF050C010F0F0
:100CD0002EECA1F00DC001F00EC002F00FC003F029
:100CE00010C004F0040E116E000E126E000E136E92
:100CF000000E146E4DC00DF04EC00EF04FC00FF040
:100D000050C010F02EECA1F00DC005F00EC006F0A2
:100D10000FC007F010C008F061ECAAF001C041F06C
:100D200002C042F003C043F004C044F0000E116E54
:100D3000080E126E000E136E000E146E41C00DF000
:100D400042C00EF043C00FF044C010F02EECA1F0F2
:100D50000DC001F00EC002F00FC003F010C004F08F
:100D600020EE10F01D50D9261E50DA22DECF05F0FD
:100D7000DDCF06F0000E06BEFF0E076E086E61ECBA
:100D8000AAF001C045F002C046F003C047F004C01D
:100D900048F020EE0EF01D50D9261E50DA22DECF8C
:100DA00001F0DDCF02F0000E02BEFF0E036E046EF6
:100DB0004DC005F04EC006F04FC007F050C008F01F
:100DC00061ECAAF0D89001341F6E0234206E033417
:100DD000216E0434226E45501F24456E465020205B
:100DE000466E47502120476E48502220486E20EE24
:100DF0000CF01D50D9261E50DA22DECF1FF0DDCFB9
:100E000020F01F50216E2050226E236A246A22C0D7
:100E100024F021C023F0226A216A45C00DF046C0AB
:100E20000EF047C00FF048C010F0040E116E000E17
:100E3000126E000E136E000E146E2EECA1F02150F7
:100E40000D24456E22500E20466E23500F20476E13
:100E500024501020486E040E116E000E126E000E0B
:100E6000136E000E146E4DC00DF04EC00EF04FC04C
:100E70000FF050C010F02EECA1F00DC001F00EC02C
:100E800002F00FC003F010C004F0040E116E000E4B
:100E9000126E000E136E000E146E4DC00DF04EC09B
:100EA0000EF04FC00FF050C010F02EECA1F00DC0AE
:100EB00005F00EC006F00FC007F010C008F061EC9E
:100EC000AAF001C041F002C042F003C043F004C0E8
:100ED00044F020EE0AF01D50D9261E50DA22DECF53
:100EE00001F0DDCF02F0000E02BEFF0E036E046EB5
:100EF000000E116E200E126E000E136E000E146E98
:100F000041C00DF042C00EF043C00FF044C010F0DD
:100F10002EECA1F00DC005F00EC006F00FC007F0DA
:100F200010C008F061ECAAF001C035F002C036F044
:100F300003C037F004C038F035C00DF036C00EF0F5
:100F400037C00FF038C010F0080E116E000E126E90
:100F5000000E136E000E146E2EECA1F00DC029F0E1
:100F60000EC02AF00FC02BF010C02CF020EE08F0BD
:100F70001D50D9261E50DA22DECF01F0DDCF02F05F
:100F8000000E02BEFF0E036E046E4DC005F04EC093
:100F900006F04FC007F050C008F061ECAAF001C0A5
:100FA0000DF002C00EF003C00FF004C010F0020EEE
:100FB000116E000E126E000E136E000E146E2EECEB
:100FC000A1F00DC02DF00EC02EF00FC02FF010C0FC
:100FD00030F02D5029240D6E2E502A200E6E2F50E9
:100FE0002B200F6E30502C20106E000E116E000E54
:100FF000126E040E136E000E146E2EECA1F00DC0D6
:101000004DF00EC04EF00FC04FF010C050F0000E6B
:101010004D24016E800E4E20026E000E4F20036E96
:10102000000E5020046E20EE06F01D50D9261E50F2
:10103000DA22DECF1FF0DDCF20F01FC005F020C088
:1010400006F0076A086A61ECAAF001C00DF002C060
:101050000EF003C00FF004C010F0000E116E800EF1
:10106000126E000E136E000E146E2EECA1F00DC069
:101070004DF00EC04EF00FC04FF010C050F04D506C
:101080004E104F105010D8B448EF88F04AEF88F057
:10109000E6EF89F01BC0D9FF1CC0DAFFDECF1FF0DE
:1010A000DECF20F0DECF21F0DECF22F01F5000088F
:1010B000316E000E2054326E100E2154336E000E2D
:1010C0002254346E000E116E100E126E000E136E4E
:1010D000000E146E45C00DF046C00EF047C00FF074
:1010E00048C010F02EECA1F00D50315C016E0E5096
:1010F0003258026E0F503358036E10503458046E3D
:10110000350E056E0C0E066E000E076E000E086E94
:1011100061ECAAF001C049F002C04AF003C04BF0F4
:1011200004C04CF0800E4C5CD8B099EF88F09BEF77
:1011300088F0B8EF88F0D8904934016E4A34026ED6
:101140004B34036E4C34046E4DC005F04EC006F0B7
:101150004FC007F050C008F094ECA7F001C049F070
:1011600002C04AF003C04BF004C04CF0D3EF88F04B
:1011700049C001F04AC002F04BC003F04CC004F07B
:101180004DC005F04EC006F04FC007F050C008F04B
:1011900094ECA7F0D8900134496E02344A6E0334BF
:1011A0004B6E04344C6E49C01FF04AC020F04BC057
:1011B00021F04CC022F0040EE3EF88F0D8902232E8
:1011C000213220321F32E82EDEEF88F01FC001F0FE
:1011D00020C002F021C003F022C004F049C023F077
:1011E0004AC024F04BC025F04CC026F0040EFEEFA0
:1011F00088F0D8902632253224322332E82EF9EFB7
:1012000088F023C005F024C006F025C007F026C0F2
:1012100008F061ECAAF00E0E13EF89F0D8900432BA
:10122000033202320132E82E0EEF89F001C039F0AC
:1012300002C03AF003C03BF004C03CF020EE16F0D0
:101240001D50D9261E50DA22DECF01F0DDCF02F08C
:10125000000E02BEFF0E036E046E39C005F03AC0E8
:1012600006F03BC007F03CC008F061ECAAF001C0FA
:101270000DF002C00EF003C00FF004C010F0000E1D
:10128000116E100E126E000E136E000E146E2EEC08
:10129000A1F00DC04DF00EC04EF00FC04FF010C0C9
:1012A00050F049C01FF04AC020F04BC021F04CC0A4
:1012B00022F0030E61EF89F0D890223221322032E1
:1012C0001F32E82E5CEF89F01FC001F020C002F051
:1012D00021C003F022C004F020EE14F01D50D926E6
:1012E0001E50DA22DECF05F0DDCF06F0000E06BE7E
:1012F000FF0E076E086E61ECAAF001C00DF002C08F
:101300000EF003C00FF004C010F0000E116E200E9E
:10131000126E000E136E000E146E2EECA1F00DC0B6
:1013200045F00EC046F00FC047F010C048F020EE68
:1013300012F01D50D9261E50DA22DECF1FF0DDCF6D
:1013400020F01FC021F020C022F0000E22BEFF0EB0
:10135000236E246E4D502124256E4E502220266E81
:101360004F502320276E50502420286E45502524AE
:101370000D6E465026200E6E475027200F6E4850A7
:101380002820106E100E116E000E126E000E136EDD
:10139000000E146E2EECA1F049500D24496E4A50F7
:1013A0000E204A6E4B500F204B6E4C5010204C6E4E
:1013B0004C504B1009E1300E495C750E4A58D8B0BC
:1013C000E4EF89F0E6EF89F0F0EF89F0300E496E36
:1013D000750E4A6E000E4B6E000E4C6E07EF8AF0D3
:1013E0004C500DE1B10E495CAD0E4A58010E4B5800
:1013F000D8A0FDEF89F0FFEF89F007EF8AF0B00E7B
:10140000496EAD0E4A6E010E4B6E000E4C6E49C019
:101410001BF04AC01CF04BC01DF04CC01EF0120067
:101420001A6E800E1A6017EF8AF019EF8AF089EFB2
:101430008DF03F0E01641FEF8AF021EF8AF023EF59
:101440008AF089EF8DF00450D8A429EF8AF02BEFB1
:101450008AF02DEF8AF088EF8DF001C005F0070EBD
:101460000516D8B436EF8AF038EF8AF0F2EF8BF039
:10147000380E01603EEF8AF040EF8AF0F2EF8BF019
:101480001AAC45EF8AF047EF8AF04BEF8AF08A807A
:101490008A924DEF8AF08A908A828A9401C005F080
:1014A000D8900532D8900532D8900532070E05162F
:1014B0000528B809836E8A88050EE82EFED700F04D
:1014C0008A98050EE82EFED700F01A503F0B40090F
:1014D000836E8A88050EE82EFED700F08A98050EE6
:1014E000E82EFED700F08A8495688A868A88050EE1
:1014F000E82EFED700F08A98050EE82EFED700F001
:10150000000E176E8A88050EE82EFED700F00D0E2D
:101510001724D96EDA6A000EDA2283CFDFFF8A98A9
:10152000050EE82EFED700F017501AC005F0066A27
:101530000526000E06223F0E05180610D8A4A3EFBC
:101540008AF0A5EF8AF0DBEF8AF08A96000E956E9E
:101550008A808A928A9401C005F0D8900532D8908A
:101560000532D8900532070E05160528B809836E96
:101570008A88050EE82EFED700F08A98050EE82E20
:10158000FED700F0400E836E8A88050EE82EFED747
:1015900000F08A98050EE82EFED700F08A84956840
:1015A0008A868A88050EE82EFED700F08A98050EF6
:1015B000E82EFED700F017501AC005F0066A05267F
:1015C000000E062205280610D8A4E9EF8AF0EBEFFA
:1015D0008AF0EDEF8AF0F6EF8AF0172A050E17640D
:1015E000F4EF8AF0F6EF8AF082EF8AF08A96000E26
:1015F000956E1AACFEEF8AF000EF8BF004EF8BF0E3
:101600008A808A9206EF8BF08A908A828A9401C03F
:1016100005F0D8900532D8900532D8900532070EE3
:1016200005160528B809836E8A88050EE82EFED7B0
:1016300000F08A98050EE82EFED700F01A503F0BF6
:101640004009836E8A88050EE82EFED700F08A983E
:10165000050EE82EFED700F08A84000E196E01C038
:1016600005F0070E051605500808146E0D0E192416
:10167000D96EDA6A000EDA22DF50126E14C005F05D
:10168000FF0E066E000E076E052A4AEF8BF0073438
:1016900007320632052E47EF8BF00650FF0A12166E
:1016A00014C005F0800E066EFE0E076E02C0F6FF37
:1016B00003C0F7FF000EF86E0F0EF76403D00800AA
:1016C000F55005D0F6CFE9FFF7CFEAFFEF50086EEF
:1016D0000850060DF3CF09F0F4CF0AF0195009268F
:1016E000000E0A22D89009360A36065009260750FD
:1016F0000A22710E0924F66EFA0E0A20F76EF86AB5
:10170000000EF8220900F5CF0BF00900F5CF0CF020
:10171000052A8EEF8BF0D8900C320B32052E8BEF12
:101720008BF00B50121212C083FF8A88050EE82E30
:10173000FED700F08A98050EE82EFED700F019506B
:101740001AC005F0066A0526000E06223F0E05188F
:101750000610D8A4AEEF8BF0B0EF8BF0D7EF8BF084
:101760008A808A928A9401C005F0D8900532D89078
:101770000532D8900532070E05160528B809836E84
:101780008A88050EE82EFED700F08A98050EE82E0E
:10179000FED700F0400E836E8A88050EE82EFED735
:1017A00000F08A98050EE82EFED700F08A841950C2
:1017B0001AC005F0066A0526000E06220528061046
:1017C000D8A4E5EF8BF0E7EF8BF0E9EF8BF0F2EFC9
:1017D0008BF0192A050E1964F0EF8BF0F2EF8BF005
:1017E0002FEF8BF01AACF7EF8BF0F9EF8BF0FDEFEA
:1017F0008BF08A808A92FFEF8BF08A908A828A949B
:101800000138E8461F0B070BB809836E8A88050E5E
:10181000E82EFED700F08A98050EE82EFED700F0DD
:101820001A503F0B4009836E8A88050EE82EFED7BA
:1018300000F08A98050EE82EFED700F08A8495689D
:101840008A868A88050EE82EFED700F08A98050E53
:10185000E82EFED700F0000E186E050E186433EF68
:101860008CF035EF8CF037EF8CF09FEF8CF08A889E
:10187000050EE82EFED700F00D0E1824D96EDA6A98
:10188000000EDA2283CFDFFF8A98050EE82EFED7FE
:1018900000F018501AC005F0066A0526000E062250
:1018A000400E05180610D8A458EF8CF05AEF8CF0B3
:1018B00089EF8CF08A96000E956E8A808A928A94BF
:1018C0000138E8461F0B070BB809836E8A88050E9E
:1018D000E82EFED700F08A98050EE82EFED700F01D
:1018E000400E836E8A88050EE82EFED700F08A9897
:1018F000050EE82EFED700F08A8495688A868A88CD
:10190000050EE82EFED700F08A98050EE82EFED7C9
:1019100000F018501AC005F0066A0526000E0622CF
:10192000800E05180610D8A498EF8CF09AEF8CF072
:101930009CEF8CF09FEF8CF0182A2DEF8CF08A969C
:10194000000E956E1AACA7EF8CF0A9EF8CF0ADEFFE
:101950008CF08A808A92AFEF8CF08A908A828A9487
:101960000138E8461F0B070BB809836E8A88050EFD
:10197000E82EFED700F08A98050EE82EFED700F07C
:101980001A503F0B4009836E8A88050EE82EFED759
:1019900000F08A98050EE82EFED700F08A84000E2B
:1019A000166E050E1664D7EF8CF0D9EF8CF0DBEFD6
:1019B0008CF078EF8DF00150070B156E0D0E16248C
:1019C000D96EDA6A000EDA22DF50136E15C005F008
:1019D000FF0E066E052AEFEF8CF0D8900636052E26
:1019E000EDEF8CF00650FF0A131615C005F0800EBF
:1019F000066EFE0E076E02C0F6FF03C0F7FF000E74
:101A0000F86E0F0EF76403D00800F55005D0F6CF3E
:101A1000E9FFF7CFEAFFEF50086E0850060DF3CF4D
:101A200009F0F4CF0AF016500926000E0A22D890C9
:101A300009360A360650092607500A22710E092473
:101A4000F66EFA0E0A20F76EF86A000EF822080009
:101A5000F5CF0BF0052A2FEF8DF0D8900B36052E21
:101A60002DEF8DF00B50131213C083FF8A88050EE3
:101A7000E82EFED700F08A98050EE82EFED700F07B
:101A80001A2A400E1A18D8A448EF8DF04AEF8DF0AC
:101A90006AEF8DF08A808A928A940138E8461F0B9B
:101AA000070BB809836E8A88050EE82EFED700F072
:101AB0008A98050EE82EFED700F0400E836E8A88C5
:101AC000050EE82EFED700F08A98050EE82EFED708
:101AD00000F08A84800E1A18D8A471EF8DF073EF8D
:101AE0008DF075EF8DF078EF8DF0162AD1EF8CF038
:101AF000800E1A18D8A47FEF8DF081EF8DF083EF60
:101B00008DF088EF8DF0024A032A040623EF8AF055
:101B10008A94120020EE21F01D50D9261E50DA22A0
:101B2000000EDE24336ED40EDE20346EFE0EDE2078
:101B3000356EFF0EDE20366E20EE08F01B50D926E3
:101B40001C50DA22DECF1FF0DECF20F0DECF21F0F6
:101B5000DECF22F00E0ED8901F36203621362236E8
:101B6000E82EABEF8DF01FC037F020C038F021C059
:101B700039F022C03AF020EE1CF01D50D9261E503C
:101B8000DA22DECF1FF0DDCF20F01F50216E205073
:101B9000226E236A246A140ED89021362236233608
:101BA0002436E82ECCEF8DF021C043F022C044F063
:101BB00023C045F024C046F020EE1EF01D50D9266B
:101BC0001E50DA22DECF01F0DDCF02F0000E02BEA1
:101BD000FF0E036E046E33C005F034C006F035C04E
:101BE00007F036C008F061ECAAF001C03BF002C07B
:101BF0003CF003C03DF004C03EF043C01FF044C0C1
:101C000020F045C021F046C022F01F1E201E211EDC
:101C1000221E1F2A000E2022212222223B501F5C5E
:101C2000236E3C502058246E3D502158256E3E5066
:101C30002258266E37502324276E38502420286ED1
:101C400039502520296E3A5026202A6E000E27246E
:101C50000D6E400E28200E6E000E29200F6E000E15
:101C60002A20106E000E116E800E126E000E136E82
:101C7000000E146E2EECA1F00DC03FF00EC040F02F
:101C80000FC041F010C042F020EE20F01D50D926C8
:101C90001E50DA22DF50016E000E01BEFF0E026EF2
:101CA000036E046E33C005F034C006F035C007F093
:101CB00036C008F061ECAAF001C00DF002C00EF0D1
:101CC00003C00FF004C010F0000E116E040E126E6F
:101CD000000E136E000E146E2EECA1F00DC037F046
:101CE0000EC038F00FC039F010C03AF020EE1BF0F3
:101CF0001D50D9261E50DA22DF501F6E1F50016E74
:101D0000026A036A046A33C005F034C006F035C0C5
:101D100007F036C008F061ECAAF001C00DF002C077
:101D20000EF003C00FF004C010F0000E116E080E8C
:101D3000126E000E136E000E146E2EECA1F00DC08C
:101D400043F00EC044F00FC045F010C046F0000E46
:101D50004324016E800E4420026E000E4520036E67
:101D6000000E4620046E37C005F038C006F039C0BA
:101D700007F03AC008F061ECAAF001C00DF002C013
:101D80000EF003C00FF004C010F0000E116E040E30
:101D9000126E000E136E000E146E2EECA1F0000EEB
:101DA0000D243B6E000E0E203C6E200E0F203D6E6B
:101DB000000E10203E6E20EE19F01D50D9261E5048
:101DC000DA22DECF01F0DDCF02F0000E02BEFF0E00
:101DD000036E046E3BC005F03CC006F03DC007F04A
:101DE0003EC008F061ECAAF0000E01240D6E200E3A
:101DF00002200E6E000E03200F6E000E0420106EE7
:101E0000000E116E400E126E000E136E000E146E58
:101E10002EECA1F00DC037F00EC038F00FC039F035
:101E200010C03AF03FC001F040C002F041C003F0E2
:101E300042C004F037C005F038C006F039C007F0E2
:101E40003AC008F061ECAAF001C043F002C044F0CF
:101E500003C045F004C046F0000E116E800E126EF5
:101E6000000E136E000E146E43C00DF044C00EF051
:101E700045C00FF046C010F02EECA1F00DC001F0EF
:101E80000EC002F00FC003F010C004F0000E116E7F
:101E9000800E126E000E136E000E146E43C00DF015
:101EA00044C00EF045C00FF046C010F02EECA1F07B
:101EB0000DC005F00EC006F00FC007F010C008F00E
:101EC00061ECAAF001C02BF002C02CF003C02DF091
:101ED00004C02EF02BC00DF02CC00EF02DC00FF062
:101EE0002EC010F0800E116E000E126E000E136EDA
:101EF000000E146E2EECA1F00DC03BF00EC03CF0B5
:101F00000FC03DF010C03EF020EE18F01D50D92655
:101F10001E50DA22DF501F6E1F50016E026A036AE4
:101F2000046A3BC005F03CC006F03DC007F03EC06F
:101F300008F061ECAAF001C00DF002C00EF003C081
:101F40000FF004C010F0100E116E000E126E000E95
:101F5000136E000E146E2EECA1F00D50435C3F6E1C
:101F60000E504458406E0F504558416E1050465820
:101F7000426E42BEBEEF8FF0C0EF8FF0C2EF8FF027
:101F8000CAEF8FF0000E3F6E000E406E000E416EE5
:101F9000000E426E42BEDBEF8FF03F04000E405851
:101FA000000E4158190E4258D8B0D9EF8FF0DBEF30
:101FB0008FF0DDEF8FF0E5EF8FF0000E3F6E000E3B
:101FC000406E000E416E190E426E3FC00DF040C0D3
:101FD0000EF041C00FF042C010F0000E116E100E56
:101FE000126E000E136E000E146E2EECA1F00DC0DA
:101FF0002FF00EC030F00FC031F010C032F0325070
:102000000CE12F04900E3058010E3158D8A00BEF80
:1020100090F00DEF90F015EF90F0000E2F6E900EF7
:10202000306E010E316E000E326E2FC01BF030C0CC
:102030001CF031C01DF032C01EF012000450800BA5
:102040000D6E045004240F6E03AE29EF90F02BEFB9
:1020500090F02CEF90F00F800F50D8B432EF90F04A
:1020600034EF90F049EF90F00F28D8A43AEF90F0B9
:102070003CEF90F044EF90F0000E016E000E026E07
:10208000000E036E000E046E038E000E046E51EF00
:1020900090F0000E016E000E026E000E036E000E38
:1020A000046E0850800B0E6E0D500E18D8B45BEF06
:1020B00090F05DEF90F05EEF90F00D8C08500824EA
:1020C0000E6E07AE66EF90F068EF90F069EF90F05B
:1020D0000E800E50D8B46FEF90F071EF90F086EF55
:1020E00090F00E28D8A477EF90F079EF90F081EF80
:1020F00090F0000E056E000E066E000E076E000ECC
:10210000086E078E000E086E8EEF90F0000E056EC2
:10211000000E066E000E076E000E086E0F500E5C6D
:10212000D8B095EF90F097EF90F0BEEF90F00DAC37
:102130009CEF90F09EEF90F0A0EF90F0800E0D1AC3
:102140000FC010F00EC00FF010C00EF001C010F064
:1021500005C001F010C005F002C010F006C002F08A
:1021600010C006F003C010F007C003F010C007F065
:1021700004C010F008C004F010C008F0000E106E8B
:102180000F500EC009F00A6A095E000E0A5A0ABE14
:10219000D3EF90F00A5009E11A0E095CD8A0D3EFF2
:1021A00090F0D5EF90F00CEF91F001500210031079
:1021B0000410D8A4DEEF90F0E1EF90F0010EE2EF12
:1021C00090F0000E106E000E016E000E026E000EFA
:1021D000036E000E046E0EC00FF015EF91F010A00C
:1021E000F4EF90F0F6EF90F0FCEF90F0D890103014
:1021F0000109106EFEEF90F0D890103201A003EFAD
:1022000091F005EF91F006EF91F0108E0434043256
:102210000332023201320F2A0E500F5CD8A013EFA6
:1022200091F015EF91F0EFEF90F00DBC1AEF91F0F7
:102230001CEF91F05CEF91F00F50D8A422EF91F0D9
:1022400024EF91F02EEF91F0000E016E000E026E61
:10225000000E036E000E046E7DEF92F00550012615
:1022600006500222075003220850042204A03BEF2C
:1022700091F03DEF91F0E9EF91F010A042EF91F075
:1022800044EF91F04AEF91F0D89010300109106EB0
:102290004CEF91F0D890103201A051EF91F053EF34
:1022A00091F054EF91F0108E043404320332023274
:1022B00001320F2AE9EF91F00550015C06500258F7
:1022C000075003580450800A096E0850800A0958C4
:1022D000D8B06DEF91F06FEF91F09AEF91F001505F
:1022E000055C096E025006580A6E035007580B6EC3
:1022F000045008580C6EFF0E0924016EFF0E0A20D0
:10230000026EFF0E0B20036EFF0E0C20046E800E7B
:102310000D1A106C1050D8A490EF91F092EF91F03C
:10232000A2EF91F0010E0126000E022203220422E8
:10233000A2EF91F00550015E0650025A0750035A71
:102340000850045A0150021003100410D8A4ABEF37
:1023500091F0ADEF91F0E2EF91F01050D8A4B3EF0F
:1023600091F0B5EF91F0E2EF91F0000E016E000EEA
:10237000026E000E036E000E046E7DEF92F0D89098
:10238000013602360336043610AEC9EF91F0CBEFBA
:1023900091F0CCEF91F0018010A0D1EF91F0D3EF4C
:1023A00091F0D7EF91F0D8801036D9EF91F0D89016
:1023B00010360F50D8B4DFEF91F0E1EF91F0E2EF7B
:1023C00091F00F0603AEE7EF91F0E9EF91F0BFEF68
:1023D00091F0000E0E6E10AEF0EF91F0F2EF91F072
:1023E0000AEF92F010C009F07F0E0916D8B4FBEF87
:1023F00091F0FDEF91F001EF92F0010E0E6E0AEFF9
:1024000092F001A006EF92F008EF92F00AEF92F03E
:10241000FDEF91F00E50D8B410EF92F012EF92F061
:102420003DEF92F0010E0126000E0222032204224B
:1024300004A01DEF92F01FEF92F03DEF92F001C06B
:1024400009F002C00AF003C00BF004C00CF00C3419
:102450000C320B320A32093209C001F00AC002F014
:102460000BC003F00CC004F00F28D8B43AEF92F080
:102470003CEF92F03DEF92F00F2A0F28D8B443EFD3
:1024800092F045EF92F04DEF92F00F50D8A44BEF41
:1024900092F04DEF92F05FEF92F0000E016E000EA1
:1024A000026E000E036E000E046E0F50D8A45BEF98
:1024B00092F05DEF92F05FEF92F0000E0D6E0FA0C4
:1024C00064EF92F066EF92F069EF92F0038E6AEF9C
:1024D00092F0039ED8900F30046E0DAE72EF92F022
:1024E00074EF92F075EF92F0048E01C001F002C01B
:1024F00002F003C003F004C004F012004AC0D9FF88
:102500004BC0DAFFDECFF6FFDDCFF7FF000EF86E2F
:102510000800F550250AD8A490EF92F092EF92F0BF
:10252000B7EF94F04AC0D9FF4BC0DAFFDE2A000EA5
:10253000DD22000E0001EF6F000EEE6FEEC0F2F034
:10254000EFC0F3F0F069F1694AC0D9FF4BC0DAFF80
:10255000DECFF6FFDDCFF7FF000EF86E0800F55076
:10256000076E086AC9ECAAF007500001A66FA651D1
:10257000D8B4BDEF92F0BFEF92F0FDEF92F04AC0F9
:10258000D9FF4BC0DAFFDECF4EF0DDCF4FF0010EAA
:102590004E26000E4F224EC0F6FF4FC0F7FF000E32
:1025A000F86E0800F550076E086AC9ECAAF00750EB
:1025B0000001A76FA751D8B4E0EF92F0E2EF92F0DC
:1025C000FDEF92F04AC0D9FF4BC0DAFFDECF4EF0EC
:1025D000DDCF4FF0020E4E26000E4F224EC0F6FF0A
:1025E0004FC0F7FF000EF86E0800F550076E086A3E
:1025F000C9ECAAF007500001A86F660EA619D8A46E
:1026000004EF93F006EF93F048EF93F04AC0D9FF40
:102610004BC0DAFFDECFF6FFDDCFF7FF000EF86E1E
:102620000800F5CFA9F04AC0D9FF4BC0DAFFDE2A77
:10263000000EDD224CC0D9FF4DC0DAFFDFCF4EF0D7
:10264000040EDE26DFCF4FF0000EDD224EC0D9FF94
:102650004FC0DAFFDECFA2F0DECFA3F0DECFA4F0D2
:10266000DECFA5F048C03CF049C03DF0A2C03EF02E
:10267000A3C03FF0A4C040F0A5C041F0A9C042F003
:1026800000EC80F03CC048F03DC049F0D4EF94F03D
:10269000A60E016E000E026EE90E036EFF0E046EB2
:1026A000000E066E020E056E08ECA0F0015002103E
:1026B000D8A45DEF93F05FEF93F0DFEF93F04AC0A3
:1026C000D9FF4BC0DAFFDECF4EF0DDCF4FF0010E69
:1026D0004E26000E4F224EC0F6FF4FC0F7FF000EF1
:1026E000F86E0800F5CFA9F0BF0E4E6EFF0E4F6ECC
:1026F0004AC0D9FF4BC0DAFFDECFF6FFDDCFF7FFD0
:10270000000EF86E0800F550506E516A4E5050267B
:102710004F50512251500AE11A0E505CD8A093EF4D
:1027200093F096EF93F0010E97EF93F0000E0001F7
:10273000986F996B98519911D8B4A1EF93F0A3EFCA
:1027400093F0BDEF93F04CC0D9FF4DC0DAFFDFCF5F
:102750004EF0040EDE26DFCF4FF0000EDD224EC01D
:10276000D9FF4FC0DAFFDECFA2F0DECFA3F0DECF7D
:10277000A4F0DECFA5F0D5EF93F04CC0D9FF4DC04B
:10278000DAFFDFCF4EF0040EDE26DFCF4FF0000E73
:10279000DD224EC0D9FF4FC0DAFFDECFA2F0DECF80
:1027A000A3F0DECFA4F0DECFA5F0020E4AC0D9FF21
:1027B0004BC0DAFFDE26000EDD2232EF93F04AC076
:1027C000D9FF4BC0DAFFDECFF6FFDDCFF7FF000EFB
:1027D000F86E0800F550750AD8A4F1EF93F0F3EF06
:1027E00093F035EF94F04AC0D9FF4BC0DAFFDE2AF0
:1027F000000EDD224CC0D9FF4DC0DAFFDFCF4EF016
:10280000020EDE26DFCF4FF0000EDD224EC0D9FFD4
:102810004FC0DAFFDECF50F0DDCF51F050C09AF05C
:1028200051C09BF000019C6B9D6B9E6B9F6BA06BDE
:10283000A16B48C01EF049C01FF09AC020F09BC099
:1028400021F09CC022F09DC023F09EC024F09FC0C8
:1028500025F0A0C026F0A1C027F05BEC9CF01EC0C4
:1028600048F01FC049F0D4EF94F04AC0D9FF4BC0E4
:10287000DAFFDECF01F0DDCF02F0EC0E036EFF0ECB
:10288000046E000E066E020E056E08ECA0F00150FC
:102890000210D8A44EEF94F050EF94F07FEF94F034
:1028A000020E4AC0D9FF4BC0DAFFDE26000EDD2241
:1028B0004CC0D9FF4DC0DAFFDFCF4EF0040EDE264C
:1028C000DFCF4FF0000EDD224EC0D9FF4FC0DAFF40
:1028D000DECF50F0DECF51F0DECF52F0DECF53F03E
:1028E000505000019A6F51509B6F52509C6F535043
:1028F0009D6F9E6B9F6BA06BA16B19EF94F04AC00C
:10290000D9FF4BC0DAFFDECFF6FFDDCFF7FF000EB9
:10291000F86E0800F550250AD8A491EF94F093EFD3
:1029200094F0AAEF94F04AC0D9FF4BC0DAFFDE2A38
:10293000000EDD22000E046E250E036E48C005F069
:1029400049C006F005ECA5F0000E496E010E486E78
:10295000D4EF94F04AC0D9FF4BC0DAFFDE2A000E54
:10296000DD22000E496E000E486ED4EF94F04AC08E
:10297000D9FF4BC0DAFFDECFF6FFDDCFF7FF000E49
:10298000F86E0800F550036E046A48C005F049C0AF
:1029900006F005ECA5F04AC0D9FF4BC0DAFFDE2AED
:1029A000000EDD22A4EF94F012000450800B0D6E97
:1029B00004500424136E03AEE0EF94F0E2EF94F0C1
:1029C000E3EF94F013801350D8B4E9EF94F0EBEFF9
:1029D00094F0FEEF94F01328D8A4F1EF94F0F3EF05
:1029E00094F0FBEF94F0000E016E000E026E000EEC
:1029F000036E000E046E038E06EF95F0000E016E5E
:102A0000000E026E000E036E000E046E0850800B66
:102A10000D1A08500824126E07AE11EF95F013EF4F
:102A200095F014EF95F012801250D8B41AEF95F08B
:102A30001CEF95F02FEF95F01228D8A422EF95F017
:102A400024EF95F02CEF95F0000E056E000E066E4B
:102A5000000E076E000E086E078E37EF95F0000E21
:102A6000056E000E066E000E076E000E086E125008
:102A7000D8B43DEF95F03FEF95F047EF95F0135048
:102A8000D8A445EF95F047EF95F051EF95F0000E83
:102A9000016E000E026E000E036E000E046EE9EF72
:102AA00096F007500102F3CF18F0F4CF19F0185048
:102AB0000E6E0F6A106A116A1950146E156A166A42
:102AC000176A06500202F3CF18F0F4CF19F018502D
:102AD0000E26000E0F221022112219501426000E6D
:102AE00015221622172205500302F3CF18F0F4CF57
:102AF00019F018500E26000E0F2210221122195024
:102B00001426000E15221622172210C011F00FC035
:102B100010F00EC00FF00E6A05500202F3CF18F04D
:102B2000F4CF19F018500E2619500F22000E102263
:102B3000000E112206500102F3CF18F0F4CF19F065
:102B400018500E2619500F22000E1022000E1122CE
:102B500010C011F00FC010F00EC00FF00E6A05503B
:102B60000102F3CF18F0F4CF19F018500E261950C7
:102B70000F22000E1022000E112207500202F3CF86
:102B800018F0F4CF19F01850142619501522000E21
:102B90001622000E172206500302F3CF18F0F4CFCE
:102BA00019F01850142619501522000E1622000E86
:102BB000172207500302F3CF18F0F4CF19F0185082
:102BC000096E19500A6E0B6A0C6A0BC00CF00AC031
:102BD0000BF009C00AF0096A095014260A501522A0
:102BE0000B5016220C5017220EC009F00FC00AF02D
:102BF00010C00BF011C00CF0190E04EF96F0D89035
:102C00000C320B320A320932E82EFFEF95F00950F0
:102C100014260A5015220B5016220C50172210C0F1
:102C200011F00FC010F00EC00FF00E6A125013C05A
:102C300009F00A6A0926000E0A22820E0924186E7B
:102C4000FF0E0A20196E3AEF96F0D890143615361A
:102C50001636173611AE2FEF96F031EF96F032EFB1
:102C600096F01480D8900E360F36103611361806AE
:102C7000D8A0190616AE3FEF96F041EF96F025EF7B
:102C800096F0000E126E11AE48EF96F04AEF96F0F5
:102C90006EEF96F0FF0E0E14096EFF0E0F140A6E03
:102CA000FF0E10140B6E7F0E11140C6E09500A10DB
:102CB0000B100C10D8B45FEF96F061EF96F065EF53
:102CC00096F0010E126E6EEF96F014A06AEF96F079
:102CD0006CEF96F06EEF96F061EF96F01250D8B46C
:102CE00074EF96F076EF96F09AEF96F0010E1426B8
:102CF000000E15221622172217A081EF96F083EFFF
:102D000096F09AEF96F014C009F015C00AF016C0BC
:102D10000BF017C00CF00C340C320B320A320932B3
:102D200009C014F00AC015F00BC016F00CC017F063
:102D3000184A192A19BEA5EF96F0195008E118286B
:102D4000D8A0A5EF96F0A7EF96F0B1EF96F0000EA1
:102D5000146E000E156E800E166E7F0E176EDFEF6E
:102D600096F019BEBEEF96F0195006E11804D8B0DF
:102D7000BCEF96F0BEEF96F0CAEF96F0000E146E20
:102D8000000E156E000E166E000E176E000E0D6E04
:102D9000DFEF96F018C013F0FF0E1416FF0E151695
:102DA0007F0E1616000E171613A0D9EF96F0DBEF64
:102DB00096F0DCEF96F0168ED8901330176E0D500B
:102DC000171214C001F015C002F016C003F017C0AE
:102DD00004F012001250800B1F6E12501224266E47
:102DE00011AEF5EF96F0F7EF96F0F8EF96F026803B
:102DF0002650D8B4FEEF96F000EF97F015EF97F05D
:102E00002628D8A406EF97F008EF97F010EF97F078
:102E1000000E0F6E000E106E000E116E000E126E80
:102E2000118E000E126E1DEF97F0000E0F6E000E49
:102E3000106E000E116E000E126E1650800B1F1ACF
:102E400016501624276E15AE28EF97F02AEF97F04C
:102E50002BEF97F027802750D8B431EF97F033EF5E
:102E600097F048EF97F02728D8A439EF97F03BEF79
:102E700097F043EF97F0000E136E000E146E000EE5
:102E8000156E000E166E158E000E166E50EF97F032
:102E9000000E136E000E146E000E156E000E166EF0
:102EA0001350141015101610D8A459EF97F05BEFBB
:102EB00097F073EF97F0000E0F6E000E106E000E7D
:102EC000116E000E126E800E11127F0E12121F5024
:102ED00012120FC00FF010C010F011C011F012C08C
:102EE00012F0B6EF98F02650D8A479EF97F07BEF68
:102EF00097F085EF97F0000E0F6E000E106E000E2B
:102F0000116E000E126EB6EF98F0275026C017F023
:102F1000186A175E000E185A7F0E1724206E000ED6
:102F20001820216E0FC01BF010C01CF011C01DF046
:102F300012C01EF0000E0F6E000E106E000E116E0D
:102F4000000E126E000E226E000E236E000E246E16
:102F5000000E256E000E276EE6EF97F02750D8B4CE
:102F6000B4EF97F0B6EF97F0CDEF97F0D8901B360F
:102F70001C361D361E36D8900F36103611361236D6
:102F800025AEC5EF97F0C7EF97F0C8EF97F00F8029
:102F9000D890223623362436253613501B5C145025
:102FA0001C5815501D5816501E58D8A0DAEF97F02F
:102FB000DCEF97F0E5EF97F0258C13501B5E145073
:102FC0001C5A15501D5A16501E5A272A190E2764CE
:102FD000ECEF97F0EEEF97F0AEEF97F01B501C1070
:102FE0001D101E10D8B4F7EF97F0F9EF97F011EF1E
:102FF00098F0228011EF98F0D8900F3610361136E5
:10300000123625AE06EF98F008EF98F009EF98F029
:103010000F80D89022362336243625362006D8A0B5
:10302000210611AE16EF98F018EF98F0FCEF97F02C
:10303000000E276E25AE1FEF98F021EF98F045EFB8
:1030400098F0FF0E2214176EFF0E2314186EFF0E59
:103050002414196E7F0E25141A6E175018101910AB
:103060001A10D8B436EF98F038EF98F03CEF98F09B
:10307000010E276E45EF98F00FA041EF98F043EF57
:1030800098F045EF98F038EF98F02750D8B44BEF10
:1030900098F04DEF98F071EF98F0010E0F26000EAA
:1030A00010221122122212A058EF98F05AEF98F035
:1030B00071EF98F00FC017F010C018F011C019F0A0
:1030C00012C01AF01A341A3219321832173217C0D5
:1030D0000FF018C010F019C011F01AC012F0204AF9
:1030E000212A21BE7CEF98F0215008E12028D8A0A9
:1030F0007CEF98F07EEF98F089EF98F0000E216E4B
:103100002068000E0F6E000E106E000E116E000E85
:10311000126E21BE96EF98F0215006E12004D8B03F
:1031200094EF98F096EF98F0A4EF98F0000E216ECF
:10313000000E206E000E0F6E000E106E000E116E4F
:10314000000E126E000E1F6E20C026F026A0ABEF00
:1031500098F0ADEF98F0B0EF98F0118EB1EF98F0D5
:10316000119ED8902630126E67EF97F01200340E41
:10317000316E210E326E000E336E000E346E1DC0A5
:10318000D9FF1EC0DAFFDECF1FF0DDCF20F01F50C9
:10319000216E2050226E236A246AD8902134256E35
:1031A0002234266E2334276E2434286E20EE04F059
:1031B0001B50D9261C50DA22DECF29F0DECF2AF0B0
:1031C000DECF2BF0DECF2CF0040EECEF98F0D89091
:1031D0002C322B322A322932E82EE7EF98F0255094
:1031E000295C356E26502A58366E27502B58376E7C
:1031F00028502C58386E20EE02F01D50D9261E5053
:10320000DA22DECF01F0DDCF02F0000E02BEFF0EAB
:10321000036E046E35C005F036C006F037C007F007
:1032200038C008F061ECAAF001C00DF002C00EF049
:1032300003C00FF004C010F0000E116E080E126EE5
:10324000000E136E000E146E2EECA1F00DC035F0C2
:103250000EC036F00FC037F010C038F01DC0D9FFD7
:103260001EC0DAFFDECF1FF0DDCF20F01F50216E31
:103270002050226E236A246A20EE04F01B50D926C7
:103280001C50DA22DECF25F0DECF26F0DECF27F08D
:10329000DECF28F0050E52EF99F0D8902832273271
:1032A00026322532E82E4DEF99F02150255C396EFB
:1032B000225026583A6E235027583B6E24502858E7
:1032C0003C6E000E116E100E126E000E136E000E8C
:1032D000146E39C001F03AC002F03BC003F03CC0AC
:1032E00004F039C005F03AC006F03BC007F03CC01E
:1032F00008F061ECAAF001C00DF002C00EF003C0AE
:103300000FF004C010F02EECA1F00DC02DF00EC097
:103310002EF00FC02FF010C030F02DC001F02EC0E5
:1033200002F02FC003F030C004F020EE04F01D5076
:10333000D9261E50DA22DECF05F0DDCF06F0000ED2
:1033400006BEFF0E076E086E61ECAAF001C00DF01C
:1033500002C00EF003C00FF004C010F0000E116E9A
:10336000400E126E000E136E000E146E2EECA1F0C5
:103370000DC039F00EC03AF00FC03BF010C03CF069
:10338000395035241F6E3A503620206E3B5037207E
:10339000216E3C503820226E20EE21F01D50D9269F
:1033A0001E50DA221FC0DEFF20C0DEFF21C0DEFF7C
:1033B00022C0DEFF20EE21F01D50D9261E50DA2259
:1033C000DECF01F0DECF02F0DECF03F0DECF04F07F
:1033D000050E056E000E066E000E076E000E086EDE
:1033E00061ECAAF0800E01240D6E000E02200E6E1C
:1033F000000E03200F6E000E0420106E000E116EE2
:10340000010E126E000E136E000E146E2EECA1F063
:103410000DC03DF00EC03EF00FC03FF010C040F0B8
:1034200040AE20EF9AF0600E3D5CF00E3E58FF0E6D
:103430003F58FF0E4058D8B020EF9AF022EF9AF094
:103440002CEF9AF0600E3D6EF00E3E6EFF0E3F6E5A
:10345000FF0E406E45EF9AF040BE3BEF9AF04050B1
:103460003F100BE1350E3D5C210E3E58D8A03BEFDE
:103470009AF03DEF9AF045EF9AF0340E3D6E210E32
:103480003E6E000E3F6E000E406E3DC01BF03EC013
:103490001CF03FC01DF040C01EF01200E4C038F028
:1034A000E5C039F0E6C03AF0E7C03BF028C038F09C
:1034B00029C039F02AC03AF02BC03BF0810E2C6EA7
:1034C000FF0E2D6E38C02EF039C02FF03AC030F00C
:1034D0003BC031F0180E72EF9AF0D8903132303292
:1034E0002F322E32E82E6DEF9AF02E502C24366EAD
:1034F000000E2D20376E37BE87EF9AF0375009E166
:10350000170E365CD8A087EF9AF089EF9AF093EF08
:103510009AF028C028F029C029F02AC02AF02BC030
:103520002BF056EF9BF037BE98EF9AF09AEF9AF097
:103530000AEF9BF036C02CF0FF0E2D6EFF0E2E6EA4
:103540007F0E2F6E000E306E2C66A9EF9AF0B1EF51
:103550009AF0303430322F322E322D322C2EA4EF0E
:103560009AF02DC032F02EC033F02FC034F030C0AE
:1035700035F0325038142C6E335039142D6E3450CF
:103580003A142E6E35503B142F6E2C502D102E10E9
:103590002F10D8A4CEEF9AF0D0EF9AF0D2EF9AF095
:1035A00089EF9AF038C02CF039C02DF03AC02EF0D7
:1035B0003BC02FF0200EE2EF9AF0D8902F322E323F
:1035C0002D322C32E82EDDEF9AF02C502D102E10DB
:1035D0002F10D8B4EEEF9AF0F0EF9AF0F8EF9AF0DF
:1035E000325038263350392234503A2235503B225B
:1035F000321C2C6E331C2D6E341C2E6E351C2F6E1F
:103600002C5038162D5039162E503A162F503B1686
:103610004EEF9BF038C02CF039C02DF03AC02EF0A0
:103620003BC02FF0200E1AEF9BF0D8902F322E3295
:103630002D322C32E82E15EF9BF02C502D102E1031
:103640002F10D8A426EF9BF028EF9BF032EF9BF0D1
:10365000000E386E000E396E000E3A6E000E3B6E94
:103660004EEF9BF0D89038342C6E39342D6E3A34AE
:103670002E6E3B342F6E2C502D102E102F10D8B4E0
:1036800044EF9BF046EF9BF04EEF9BF0000E386E40
:10369000000E396E800E3A6EBF0E3B6E38C028F0B9
:1036A00039C029F03AC02AF03BC02BF01200880E36
:1036B000126E200E136E000E146E000E166E1A0E91
:1036C000156E760E7EECA8F0205021C01EF01F6A09
:1036D0001EC01FF01E6A1E12000E1F121CC0D9FF52
:1036E0001DC0DAFF1EC0DEFF1FC0DDFF225023C059
:1036F0001EF01F6A1EC01FF01E6A1E12000E1F124F
:1037000020EE02F01C50D9261D50DA221EC0DEFF2A
:103710001FC0DDFF245025C01EF01F6A1EC01FF011
:103720001E6A1E12000E1F1220EE04F01C50D92635
:103730001D50DA221EC0DEFF1FC0DDFF265027C04D
:103740001EF01F6A1EC01FF01E6A1E12000E1F12FE
:1037500020EE06F01C50D9261D50DA221EC0DEFFD6
:103760001FC0DDFF285029C01EF01F6A1EC01FF0B9
:103770001E6A1E12000E1F1220EE08F01C50D926E1
:103780001D50DA221EC0DEFF1FC0DDFF2A502BC0F5
:103790001EF01F6A1EC01FF01E6A1E12000E1F12AE
:1037A00020EE0AF01C50D9261D50DA221EC0DEFF82
:1037B0001FC0DDFF2C502DC01EF01F6A1EC01FF061
:1037C0001E6A1E12000E1F1220EE0CF01C50D9268D
:1037D0001D50DA221EC0DEFF1FC0DDFF2E502FC09D
:1037E0001EF01F6A1EC01FF01E6A1E12000E1F125E
:1037F00020EE0EF01C50D9261D50DA221EC0DEFF2E
:103800001FC0DDFF305031C01EF01F6A1EC01FF008
:103810001E6A1E12000E1F1220EE10F01C50D92638
:103820001D50DA221EC0DEFF1FC0DDFF325033C044
:103830001EF01F6A1EC01FF01E6A1E12000E1F120D
:1038400020EE12F01C50D9261D50DA221EC0DEFFD9
:103850001FC0DDFF345035C01EF01F6A1EC01FF0B0
:103860001E6A1E12000E1F1220EE14F01C50D926E4
:103870001D50DA221EC0DEFF1FC0DDFF365037C0EC
:103880001EF01F6A1EC01FF01E6A1E12000E1F12BD
:1038900020EE16F01C50D9261D50DA221EC0DEFF85
:1038A0001FC0DDFF20EE18F01C50D9261D50DA2273
:1038B00039C0DFFF12000001F1BF61EF9CF063EF40
:1038C0009CF064EF9CF0F293F1BF71EF9CF0F1512A
:1038D00006E1F005D8B06FEF9CF071EF9CF077EF48
:1038E0009CF0000E316E010E306E7BEF9CF0F0C04C
:1038F00030F0F1C031F0EEC032F0EFC033F020C054
:1039000034F021C035F022C036F023C037F024C097
:1039100038F025C039F026C03AF027C03BF0000E41
:103920003D6E4F0E3C6E000E0101C56F0EEF9DF017
:103930003C06D8A03D06760E3C24D96E010E3D20F3
:10394000DA6E34C001F035C002F036C003F037C083
:1039500004F038C005F039C006F03AC007F03BC0AB
:1039600008F00A0E096E000E0A6E000E0B6E000EB5
:103970000C6E000E0D6E000E0E6E000E0F6E000E21
:10398000106E35ECA4F001C028F002C029F003C08D
:103990002AF004C02BF005C02CF006C02DF007C0A3
:1039A0002EF008C02FF02850300FDF6E3006D8A060
:1039B00031063206D8A0330634C001F035C002F01B
:1039C00036C003F037C004F038C005F039C006F047
:1039D0003AC007F03BC008F00A0E096E000E0A6EEE
:1039E000000E0B6E000E0C6E000E0D6E000E0E6EB5
:1039F000000E0F6E000E106EBDECA3F001C034F08F
:103A000002C035F003C036F004C037F005C038F00E
:103A100006C039F007C03AF008C03BF03C503D10FA
:103A2000D8B415EF9DF017EF9DF048EF9DF034509E
:103A3000351036103710381039103A103B10D8A412
:103A400024EF9DF026EF9DF098EF9CF031BE33EF10
:103A50009DF0315006E13004D8B031EF9DF033EFE6
:103A60009DF098EF9CF033BE3EEF9DF0335008E19F
:103A70003204D8A03EEF9DF040EF9DF048EF9DF05E
:103A80000001F2B346EF9DF048EF9DF098EF9CF0F7
:103A90001EC013F01FC014F0760E3C24156E010EEC
:103AA0003D20166E32C017F033C018F0CEECA5F0F2
:103AB00013C01EF014C01FF01200F70E126E260E77
:103AC000136E000E146E000E166E080E156E760E36
:103AD0007EECA8F026C01EF01F6A206A216A0C0E38
:103AE000D8901E361F3620362136E82E70EF9DF016
:103AF0001EC036F01FC037F020C038F021C039F0AA
:103B000027C01EF01F6A206A216A040ED8901E3654
:103B10001F3620362136E82E86EF9DF01EC032F08B
:103B20001FC033F020C034F021C035F028C01EF093
:103B30001E3A0F0E1E161E502E6E2F6A306A316A04
:103B4000325036101E6E335037101F6E34503810FE
:103B5000206E35503910216E2E501E10226E2F50BF
:103B60001F10236E30502010246E31502110256E0E
:103B70001CC0D9FF1DC0DAFF22C0DEFF23C0DEFF5C
:103B800024C0DEFF25C0DEFF29C01EF01F6A206AA8
:103B9000216A0C0ED8901E361F3620362136E82EAC
:103BA000CAEF9DF01EC036F01FC037F020C038F0BD
:103BB00021C039F02AC01EF01F6A206A216A040E53
:103BC000D8901E361F3620362136E82EE0EF9DF0C5
:103BD0001EC032F01FC033F020C034F021C035F0D9
:103BE0002BC01EF01E3A0F0E1E161E502E6E2F6A90
:103BF000306A316A325036101E6E335037101F6EE5
:103C000034503810206E35503910216E2E501E1051
:103C1000226E2F501F10236E30502010246E315012
:103C20002110256E20EE04F01C50D9261D50DA22FA
:103C300022C0DEFF23C0DEFF24C0DEFF25C0DEFF82
:103C40002CC01EF01F6A206A216A20C021F01FC00C
:103C500020F01EC01FF01E6A1EC036F01FC037F0D5
:103C600020C038F021C039F02D50326E336A346AEA
:103C7000356A325036101E6E335037101F6E345076
:103C80003810206E35503910216E20EE08F01C508F
:103C9000D9261D50DA221EC0DEFF1FC0DEFF20C065
:103CA000DEFF21C0DEFF1200C8ECADF02DECAEF05F
:103CB00020ECACF09DECA4F0010E016E520E026EF1
:103CC000FF0E036E0D0E046E010E10EC8AF00C0E4A
:103CD000016E780E026EFF0E036E0A0E046E010E68
:103CE00010EC8AF0170E016E830E026EFF0E036E4B
:103CF0000D0E046E010E10EC8AF05BECADF0510E6F
:103D00003A6E010E3B6E85ECADF092ECADF0390EE3
:103D10001C6E010E1D6E5DEC9DF0390E516E010E94
:103D2000526E2D0E536E010E546E510E556E010ED5
:103D3000566E37ECA8F02D0E286E010E296E450E3A
:103D40002A6E010E2B6E9EECA0F0000E0001AA6FF1
:103D5000010EAB6FEF0EAC6FFF0EAD6F49C1AEF051
:103D60004AC1AFF04BC1B0F04CC1B1F028ECABF0A0
:103D70000F0E0001AA6F010EAB6FEF0EAC6FFF0EBE
:103D8000AD6F45C1AEF046C1AFF047C1B0F048C11C
:103D9000B1F028ECABF01E0E0001AA6F010EAB6F64
:103DA000EF0EAC6FFF0EAD6F4DC1AEF04EC1AFF078
:103DB0004FC1B0F050C1B1F028ECABF0210E0001C2
:103DC000AA6FFF0EAB6F49C1ACF04AC1ADF04BC159
:103DD000AEF04CC1AFF045C1B0F046C1B1F047C143
:103DE000B2F048C1B3F04DC1B4F04EC1B5F04FC10F
:103DF000B6F050C1B7F007ECADF0010E016E000E49
:103E0000026E010E036E050E046E4B0E10EC8AF06E
:103E10000C0E016E0F0E026E010E036E050E046E87
:103E20003C0E10EC8AF0180E016E1E0E026E010E92
:103E3000036E050E046E3C0E10EC8AF0150E5F6EDC
:103E40004B0E5E6EBE0EE82EFED75E2EFCD75F2EAA
:103E5000FAD700D085EF9EF000EF00F0096E095010
:103E6000D8B435EF9FF037EF9FF059EF9FF004BEC5
:103E70003EEF9FF03CEF9FF059EF9FF001C005F03F
:103E800002C006F003C007F004C008F0051E061EBD
:103E9000071E081E052A000E06220722082205C05A
:103EA0000BF006C00CF007C00DF008C00EF061EF7B
:103EB0009FF001C00BF002C00CF003C00DF004C075
:103EC0000EF00150021003100410D8A46AEF9FF006
:103ED0006CEF9FF076EF9FF0000E016E000E026E09
:103EE000000E036E000E046E07EFA0F0960E0A6E31
:103EF00080EF9FF00A2AD8900E320D320C320B322E
:103F0000000E0B14056E000E0C14066E000E0D1440
:103F1000076EFE0E0E14086E0550061007100810EE
:103F2000D8A495EF9FF097EF9FF07AEF9FF0A5EF61
:103F30009FF00A2A010E0B26000E0C220D220E22E3
:103F4000D8900E320D320C320B32000E0B14056E6F
:103F5000000E0C14066E000E0D14076EFF0E0E14EC
:103F6000086E0550061007100810D8A4BAEF9FF08D
:103F7000BCEF9FF099EF9FF0C4EF9FF00A06D89036
:103F80000B360C360D360E360DBEC9EF9FF0CBEF5B
:103F90009FF0D3EF9FF0020E0A60D1EF9FF0D3EFB6
:103FA0009FF0BEEF9FF00AB0D8EF9FF0DAEF9FF0DE
:103FB000DBEF9FF00D9ED8900A320AC005F0066A2A
:103FC000076A086A05C008F0076A066A056A0550AC
:103FD0000B1206500C1207500D1208500E12095009
:103FE000D8B4F5EF9FF0F7EF9FF0FFEF9FF004BE1E
:103FF000FEEF9FF0FCEF9FF0FFEF9FF00E8E0BC0E7
:1040000001F00CC002F00DC003F00EC004F012006D
:1040100001C008F002C009F003C00AF004C00BF0B0
:104020000506D8A00606052806E10628D8A41BEF39
:10403000A0F01DEFA0F02AEFA0F0000E026E000E1F
:10404000016E9DEFA0F0084A092A0A4A0B2A0506CC
:10405000D8A0060608C0F6FF09C0F7FF000EF86EEC
:104060000F0EF76403D00800F55005D0F6CFE9FF36
:10407000F7CFEAFFEF500009D8B441EFA0F043EFCB
:10408000A0F07EEFA0F00AC0F6FF0BC0F7FF000E15
:10409000F86E0800F5500009D8B451EFA0F053EFC6
:1040A000A0F07EEFA0F005500610D8B45AEFA0F0B3
:1040B0005CEFA0F07EEFA0F00AC0F6FF0BC0F7FFA8
:1040C000000EF86E0800F5CF07F008C0F6FF09C033
:1040D000F7FF000EF86E0F0EF76403D00800F550DE
:1040E00005D0F6CFE9FFF7CFEAFFEF500718D8B4B5
:1040F0007CEFA0F07EEFA0F023EFA0F008C0F6FF69
:1041000009C0F7FF000EF86E0F0EF76403D0080029
:10411000F55005D0F6CFE9FFF7CFEAFFEF50076E75
:104120000AC0F6FF0BC0F7FF000EF86E0800F5504E
:10413000075C016E026AD8A00206120020EE04F0AD
:104140002850D9262950DA22DECF01F0DECF02F046
:10415000DECF03F0DECF04F0000E2EEC9FF001C0A6
:104160000FF002C010F003C011F004C012F0000EF6
:10417000136E000E146EC80E156E420E166EEAEC2B
:1041800096F020EE04F02A50D9262B50DA220FC0E8
:10419000DEFF10C0DEFF11C0DEFF12C0DEFF28C050
:1041A000D9FF29C0DAFFDECF01F0DECF02F0DECF8B
:1041B00003F0DECF04F0000E2EEC9FF001C00FF0F4
:1041C00002C010F003C011F004C012F0000E136E14
:1041D000000E146EC80E156E420E166EEAEC96F0C6
:1041E0002AC0D9FF2BC0DAFF0FC0DEFF10C0DEFFF0
:1041F00011C0DEFF12C0DEFF20EE08F02850D926E5
:104200002950DA22DECF01F0DECF02F0DECF03F05C
:10421000DECF04F0000E2EEC9FF001C00FF002C0C4
:1042200010F003C011F004C012F0000E136E000E67
:10423000146E800E156E440E166EEAEC96F020EEAB
:1042400008F02A50D9262B50DA220FC0DEFF10C00A
:10425000DEFF11C0DEFF12C0DEFF1200000E166E80
:1042600014BE37EFA1F035EFA1F041EFA1F0141E1D
:10427000131E121E116C000E122213221422010EA4
:10428000166E10BE48EFA1F046EFA1F052EFA1F07C
:10429000101E0F1E0E1E0D6C000E0E220F2210227D
:1042A000010E161A000E176E000E186E000E196E13
:1042B000000E1A6E1150121013101410D8B463EFC0
:1042C000A1F065EFA1F09BEFA1F0010E156E6FEF6D
:1042D000A1F0D8901136123613361436152A14AEC2
:1042E00074EFA1F076EFA1F069EFA1F0D890173646
:1042F000183619361A3611500D5C12500E581350DC
:104300000F5814501058D8A088EFA1F08AEFA1F0F0
:1043100093EFA1F011500D5E12500E5A13500F5A28
:104320001450105A1780D8901432133212321132AE
:10433000152E76EFA1F01650D8B4A1EFA1F0A3EF9F
:10434000A1F0ABEFA1F01A1E191E181E176C000E7B
:10435000182219221A2217C00DF018C00EF019C029
:104360000FF01AC010F01200E10E126E280E136E3C
:10437000000E146E000E166E070E156E760E7EEC95
:10438000A8F0285029C01EF01F6A1EC01FF01E6A28
:104390001E12000E1F1220EE19F01C50D9261D50BF
:1043A000DA221EC0DEFF1FC0DDFF20EE1BF01C5016
:1043B000D9261D50DA222AC0DFFF2BC01EF01F6A4B
:1043C0001EBE1F061E3A1F3AF00E1F161E500F0B80
:1043D0001F12F00E1E161EC022F01FC023F02CC0AC
:1043E0001EF00F0E1E161E50206E216A2050221045
:1043F0001E6E215023101F6E20EE1CF01C50D9267B
:104400001D50DA221EC0DEFF1FC0DDFF2DC01EF0D2
:104410001F6A1EBE1F061E3A1F3AF00E1F161E50C0
:104420000F0B1F12F00E1E161EC026F01FC027F025
:104430002CC01EF01E3A0F0E1E161E50246E256A4A
:10444000245026101E6E255027101F6E20EE1EF0E1
:104450001C50D9261D50DA221EC0DEFF1FC0DDFF12
:1044600020EE20F01C50D9261D50DA222EC0DFFF8E
:104470001200033404340A6E0A50D8A442EFA2F0AA
:1044800044EFA2F04EEFA2F0000E016E000E026E9D
:10449000000E036E000E046EBBEFA2F001C005F02B
:1044A00002C006F003C007F004C008F0200E5EEF63
:1044B000A2F0D8900832073206320532E82E59EFC2
:1044C000A2F00550096E038EFF0E0116FF0E0216B4
:1044D000FF0E0316000E0416960E0A5E0ABE75EF56
:1044E000A2F073EFA2F08BEFA2F00A50800A970FB0
:1044F000D8B07DEFA2F07FEFA2F081EFA2F044EF01
:10450000A2F0D89004320332023201320A3E81EF27
:10451000A2F0A3EFA2F01F0E0A6491EFA2F093EFB6
:10452000A2F09BEFA2F044EFA2F0D8900136023641
:10453000033604360A060A50D8A4A1EFA2F0A3EF6E
:10454000A2F095EFA2F00950D8B4A9EFA2F0ABEF1A
:10455000A2F0B3EFA2F0041E031E021E016C000EB7
:1045600002220322042201C001F002C002F003C0B3
:1045700003F004C004F01200000E1A14226E000EA4
:104580001B14236E800E1C14246E7F0E1D14256ECA
:104590002250231024102510D8A4D1EFA2F0D3EF7D
:1045A000A2F0DBEFA2F0000E1A6E000E1B6E000EE2
:1045B0001C6E000E1D6E000E1E14226E000E1F14C7
:1045C000236E800E2014246E7F0E2114256E22503F
:1045D000231024102510D8A4F0EFA2F0F2EFA2F0DF
:1045E000FAEFA2F0000E1E6E000E1F6E000E206E7F
:1045F000000E216E1DAEFFEFA2F001EFA3F00AEF57
:10460000A3F01A6C1B1ED8B01B2A1C1ED8B01C2A83
:10461000800E1D5621AE0FEFA3F011EFA3F01AEF9D
:10462000A3F01E6C1F1ED8B01F2A201ED8B0202A4F
:10463000800E2156000E1A1A000E1B1A000E1C1AAC
:10464000800E1D1A000E1E1A000E1F1A000E201AD0
:10465000800E211A1E501A5C1F501B5820501C58E7
:1046600021501D58D8B037EFA3F039EFA3F03CEF3D
:10467000A3F0D8903DEFA3F0D8801200E8C00BF073
:10468000E9C00CF0EAC00DF0EBC00EF001C00BF079
:1046900002C00CF003C00DF004C00EF00BC005F01A
:1046A0000CC006F00DC007F00EC008F0180E5EEF4B
:1046B000A3F0D8900832073206320532E82E59EFBF
:1046C000A3F00550096E0A6A09500A10D8A46BEFCE
:1046D000A3F06DEFA3F08DEFA3F0D8900B34056E2F
:1046E0000C34066E0D34076E0E34086E055006103D
:1046F00007100810D8A47FEFA3F081EFA3F087EF95
:10470000A3F0000E026E020E016EBCEFA3F0000ECD
:10471000026E030E016EBCEFA3F009280A10D8A4A4
:1047200094EFA3F096EFA3F0B8EFA3F00BC005F061
:104730000CC006F00DC007F00EC008F0090ED890AE
:104740000536063607360836E82E9FEFA3F00550EB
:10475000061007100810D8B4B0EFA3F0B3EFA3F021
:10476000010EB4EFA3F0000E016E026ABCEFA3F0DD
:10477000000E026E040E016E120020EE11F0070E04
:10478000DE6AE806FDE209500A100B100C100D104D
:104790000E100F101010D8B4D0EFA3F0D2EFA3F08A
:1047A00024EFA4F0010E196EE0EFA3F0D8900936C3
:1047B0000A360B360C360D360E360F361036192AE1
:1047C00010AEE5EFA3F0E7EFA3F0D6EFA3F0D8909B
:1047D0001136123613361436153616361736183685
:1047E0000950015C0A5002580B5003580C500458F1
:1047F0000D5005580E5006580F50075810500858C5
:10480000D8A005EFA4F007EFA4F018EFA4F009502A
:10481000015E0A50025A0B50035A0C50045A0D50B4
:10482000055A0E50065A0F50075A1050085A118058
:10483000D89010320F320E320D320C320B320A3257
:104840000932192EE7EFA3F011C001F012C002F0F7
:1048500013C003F014C004F015C005F016C006F034
:1048600017C007F018C008F0120009500A100B100A
:104870000C100D100E100F101010D8B442EFA4F051
:1048800044EFA4F08CEFA4F0010E116E52EFA4F0EF
:10489000D89009360A360B360C360D360E360F36E2
:1048A0001036112A10AE57EFA4F059EFA4F048EFDC
:1048B000A4F00950015C0A5002580B5003580C50E8
:1048C00004580D5005580E5006580F5007581050F8
:1048D0000858D8A06EEFA4F070EFA4F080EFA4F019
:1048E0000950015E0A50025A0B50035A0C50045AE8
:1048F0000D50055A0E50065A0F50075A1050085ABC
:10490000D89010320F320E320D320C320B320A3286
:104910000932112E59EFA4F001C001F002C002F0DB
:1049200003C003F004C004F005C005F006C006F0A3
:1049300007C007F008C008F012008A94400E836E8A
:104940008A908A828A88050EE82EFED700F08A981F
:10495000050EE82EFED700F08A808A928A88050E1E
:10496000E82EFED700F08A98050EE82EFED700F05C
:10497000B80E026E02C083FF8A908A828A88050E72
:10498000E82EFED700F08A98050EE82EFED700F03C
:104990008A808A928A88050EE82EFED700F08A98CF
:1049A000050EE82EFED700F0000E836E8A84000EFE
:1049B000016E8A908A828A88050EE82EFED700F062
:1049C0008A98050EE82EFED700F08A808A928A889F
:1049D000050EE82EFED700F08A98050EE82EFED7C9
:1049E00000F0012A3F0E0164F8EFA4F0FAEFA4F002
:1049F000D9EFA4F08A94022ABF0E026402EFA5F058
:104A000004EFA5F0BAEFA4F0120005500610D8B4D8
:104A10000CEFA5F00EEFA5F017EFA5F0055006106E
:104A2000D8A415EFA5F017EFA5F01CEFA5F00350E3
:104A300028ECAEF069EFA5F020EE04F00550D92681
:104A40000650DA22DE50DE10D8B429EFA5F02BEFA5
:104A5000A5F046EFA5F020EE04F00550D92606504B
:104A6000DA2210EE02F00550E1260650E222DE5076
:104A7000E65CE650800A0B6EDE50800A0B58D8B018
:104A800044EFA5F046EFA5F069EFA5F020EE02F0A7
:104A90000550D9260650DA22DECF07F0DDCF08F028
:104AA00005C0D9FF06C0DAFFDECF09F0DDCF0AF07E
:104AB00007500924D96E08500A20DA6E03C0DFFFC0
:104AC00020EE02F00550D9260650DA22DE2A000E2A
:104AD000DD221200BEECADF00009D8B472EFA5F0F3
:104AE00074EFA5F0B1EFA5F082EFA5F04EECAEF0BB
:104AF000CDEFA5F04AECAEF0CDEFA5F042ECAEF074
:104B0000CDEFA5F0D2C00CF0D3C00DF020EEC3F075
:104B100002D895EFA5F00500FA6EDE50FD6EDE506E
:104B2000FE6EDE50FF6EFA5012000E6E0F6A0F50CE
:104B3000000AD8B49EEFA5F07EEFA5F00E50010A52
:104B4000D8B47EEFA5F0030AD8B476EFA5F0010A39
:104B5000D8B47AEFA5F0070AD8B47EEFA5F07EEFBF
:104B6000A5F00001E391DDC0D9FFDEC0DAFFDD4B27
:104B7000DE2BDF5052ECAEF00001DF07D8A0E007DB
:104B8000DF51E011D8A4C7EFA5F0C9EFA5F0CCEF35
:104B9000A5F0060ECDEFA5F0030E12000001F2A164
:104BA000D4EFA5F0D6EFA5F0E0EFA5F015C00CF01E
:104BB00016C00DF013C00EF014C00FF09AECABF05D
:104BC00018BEE5EFA5F0E7EFA5F0EDEFA5F017C0F3
:104BD0001CF018C01DF0F1EFA5F0000E1D6E000EC8
:104BE0001C6E000E1B6E000E1A6E03EFA6F0000E78
:104BF000046E200E036E13C005F014C006F005EC21
:104C0000A5F01A4A1B2A1C501A5C1B50800A196E08
:104C10001D50800A1958D8A010EFA6F012EFA6F088
:104C2000F7EFA5F00001F2B118EFA6F01AEFA6F029
:104C300024EFA6F015C00CF016C00DF013C00EF056
:104C400014C00FF09AECABF015C001F016C002F0E2
:104C500076ECACF01C500124136E1D500220146E33
:104C60001200000E066E04BE3AEFA6F038EFA6F072
:104C700040EFA6F0036C041ED8B0042A010E066EA5
:104C800002BE47EFA6F045EFA6F04DEFA6F0016C8F
:104C9000021ED8B0022A010E061A000E086E000E7F
:104CA000076E03500410D8B458EFA6F05AEFA6F0E0
:104CB00082EFA6F0010E056E62EFA6F0D8900336E3
:104CC0000436052A04AE67EFA6F069EFA6F05EEFA2
:104CD000A6F0D890073608360350015C04500258FD
:104CE000D8A075EFA6F077EFA6F07CEFA6F0035002
:104CF000015E0450025A0780D89004320332052E18
:104D000069EFA6F00650D8B488EFA6F08AEFA6F0B7
:104D10008EEFA6F0076C081ED8B0082A07C001F075
:104D200008C002F01200000E066E02BE9CEFA6F054
:104D30009AEFA6F0A2EFA6F0016C021ED8B0022AEC
:104D4000010E066E04BEA9EFA6F0A7EFA6F0ADEF28
:104D5000A6F0036C041ED8B0042A03500410D8B483
:104D6000B4EFA6F0B6EFA6F0DAEFA6F0010E056EEE
:104D7000BEEFA6F0D89003360436052A04AEC3EF82
:104D8000A6F0C5EFA6F0BAEFA6F00350015C045000
:104D90000258D8A0CEEFA6F0D0EFA6F0D4EFA6F040
:104DA0000350015E0450025AD89004320332052E9B
:104DB000C5EFA6F00650D8B4E0EFA6F0E2EFA6F0FB
:104DC000E6EFA6F0016C021ED8B0022A01C001F085
:104DD00002C002F01200000E0114096E000E02144F
:104DE0000A6E800E03140B6E7F0E04140C6E0950B5
:104DF0000A100B100C10D8A400EFA7F002EFA7F0D8
:104E00000AEFA7F0000E016E000E026E000E036E98
:104E1000000E046E000E0514096E000E06140A6ED4
:104E2000800E07140B6E7F0E08140C6E09500A10CA
:104E30000B100C10D8A41FEFA7F021EFA7F029EF5B
:104E4000A7F0000E056E000E066E000E076E000E37
:104E5000086E055001180FE1065002180CE10750CA
:104E6000031809E108500418D8B439EFA7F03BEF54
:104E7000A7F03EEFA7F0D8903FEFA7F0D880120040
:104E80005EECAEF0DDC0D9FFDEC0DAFFDF6E000100
:104E9000DD4BDE2BDF07D8A0E007DF51E011D8B4EF
:104EA00054EFA7F056EFA7F05BEFA7F056ECAEF08B
:104EB000050E93EFA7F0E38766EFA7F036ECAEF0B0
:104EC00093EFA7F03AECAEF093EFA7F0CCC00CF064
:104ED000CDC00DF002D877EFA7F00500FA6EBA51F9
:104EE000FD6EBB51FE6EBC51FF6EFA5012000E6E8D
:104EF0000F6A0F50000AD8B480EFA7F062EFA7F056
:104F00000E50010AD8B462EFA7F0030AD8B45EEFDE
:104F1000A7F0010AD8B45EEFA7F0070AD8B462EF91
:104F2000A7F062EFA7F01200000E096E000E0A6EE5
:104F3000000E0B6E000E0C6E0550061007100810C8
:104F4000D8B4A5EFA7F0A7EFA7F0DDEFA7F0010E0B
:104F50000D6EB1EFA7F0D890053606360736083645
:104F60000D2A08AEB6EFA7F0B8EFA7F0ABEFA7F0A9
:104F7000D89009360A360B360C360550015C0650BF
:104F800002580750035808500458D8A0CAEFA7F099
:104F9000CCEFA7F0D5EFA7F00550015E0650025AFE
:104FA0000750035A0850045A0980D8900832073233
:104FB000063205320D2EB8EFA7F009C001F00AC085
:104FC00002F00BC003F00CC004F01200016E010EE1
:104FD000026E0001E3B5EFEFA7F0F1EFA7F035EFB8
:104FE000A8F001C0DCF0E393E385E3910E0EE16FDE
:104FF000010EDB6FF40EDA6FE387C80EBA6F5C0E3A
:10500000BB6F010EBC6F000ECC6F000ECD6FC80ED3
:10501000BD6F5C0EBE6F010EBF6F000ECE6F000E37
:10502000CF6FC80EC06F5C0EC16F010EC26F000E55
:10503000D06F000ED16FC80EC36F5C0EC46F010E2F
:10504000C56F000ED26F000ED36FC40EC66F5C0E1C
:10505000C76F010EC86F000ED46F000ED56F70ECD5
:10506000AEF02CECADF0000E026E0250120051C0FA
:105070001BF052C01CF055C01DF056C01EF0B7EC1E
:1050800098F020EE04F05350D9265450DA221BC079
:10509000DEFF1CC0DEFF1DC0DEFF1EC0DEFF51C0F4
:1050A0001BF052C01CF055C01DF056C01EF02CEC79
:1050B00086F053C0D9FF54C0DAFF1BC0DEFF1CC00E
:1050C000DEFF1DC0DEFF1EC0DEFF51C01BF052C060
:1050D0001CF055C01DF056C01EF08AEC8DF020EE7D
:1050E00008F05350D9265450DA221BC0DEFF1CC0F2
:1050F000DEFF1DC0DEFF1EC0DEFF1200176E13C0F4
:105100001AF014C01BF015C018F016C019F0175093
:10511000E6ECA7F00009D8B490EFA8F092EFA8F061
:1051200087EFA8F0BC0E076E570E086E010E096ED1
:10513000180E0A6E000E0B6E77ECADF0120E016EBB
:10514000000E026E000E046E010E036E1AECADF03E
:10515000000E076E000E086E000E096E000E0A6E3D
:10516000000E0B6E69ECADF032ECAEF0F1ECACF091
:10517000E806D8B4BEEFA8F0C0EFA8F0B6EFA8F0EC
:105180001200066E015002100310D8B4CAEFA8F046
:10519000CCEFA8F0E8EFA8F00650030DBA0EF32408
:1051A000D96E000EF420DA6E01C0DEFF02C0DEFF11
:1051B00003C0DEFF0650020DCC0EF324D96E000EA4
:1051C000F420DA6E04C0DEFF05C0DDFF02EFA9F0B7
:1051D0000650030DBA0EF324D96E000EF420DA6ED9
:1051E000C80EDE6E5C0EDE6E010EDE6E0650020D27
:1051F000CC0EF324D96E000EF420DA6E000EDE6EB3
:10520000000EDD6E12000001E38714EFA9F046ECFA
:10521000AEF041EFA9F05CECAEF0030E41EFA9F067
:1052200042ECAEF041EFA9F0CCC00CF0CDC00DF0D7
:1052300002D825EFA9F00500FA6EBA51FD6EBB51F8
:10524000FE6EBC51FF6EFA5012000E6E0F6A0F50C8
:10525000000AD8B42EEFA9F010EFA9F00E50010A01
:10526000D8B410EFA9F0030AD8B407EFA9F0010AE7
:10527000D8B407EFA9F0070AD8B40BEFA9F010EFE4
:10528000A9F01200136E000E146E1350E6ECA7F096
:105290000009D8B44EEFA9F050EFA9F045EFA9F0FE
:1052A000820E076E590E086E010E096E140E0A6EFC
:1052B000000E0B6E77ECADF0120E016E000E026E5A
:1052C000000E046E010E036E1AECADF0000E076EB8
:1052D000000E086E000E096E000E0A6E000E0B6EB8
:1052E00069ECADF032ECAEF0F1ECACF0E806D8B41D
:1052F0007CEFA9F07EEFA9F074EFA9F01450120032
:10530000146E1450E6ECA7F00009D8B48AEFA9F0A7
:105310008CEFA9F081EFA9F0220E076E590E086EEE
:10532000010E096E130E0A6E000E0B6E77ECADF0D7
:10533000120E016E000E026E000E046E010E036E60
:105340001AECADF0000E076E000E086E000E096E2E
:10535000000E0A6E000E0B6E69ECADF032ECAEF092
:10536000F1ECACF0E806D8B4B8EFA9F0BAEFA9F0C8
:10537000B0EFA9F012001D6EF20EDAECADF0216E66
:10538000F50EDAECADF0226E17C01CF0D8901C368A
:10539000D8901C36D8901C361B40E842C00B1C101D
:1053A0001D101E6E18502110206E19C01CF0D890D0
:1053B0001C36D8901C36D8901C361A38E846E00BBC
:1053C0001C1022101F6E10ECAEF01FC015F0F50E71
:1053D000D1ECADF020C015F0F20ED1ECADF01EC056
:1053E00015F0F40ED1ECADF0120070ECAEF000014F
:1053F000E3A1FDEFA9F0FFEFA9F00CEFAAF0BEECDE
:10540000ADF00009D8B407EFAAF009EFAAF00CEF4D
:10541000AAF00F0E0001E16F0001E151030DF10E42
:10542000F324F66EFE0EF420F76EF86A000EF822F2
:1054300002D828EFAAF00500FA6E0900F550FD6EBB
:105440000900F550FE6E0900F550FF6EFA5012008B
:105450000001E16F12000001E391020EE26F39EFEB
:10546000AAF046ECAEF060EFAAF042ECAEF060EFCE
:10547000AAF0D0C00CF0D1C00DF020EEC0F002D8E0
:105480004CEFAAF00500FA6EDE50FD6EDE50FE6EA7
:10549000DE50FF6EFA5012000E6E0F6A0F50000AB7
:1054A000D8B455EFAAF035EFAAF00E50020AD8B4DE
:1054B00031EFAAF0010AD8B431EFAAF035EFAAF023
:1054C0001200000E096E000E0A6E000E0B6E000E2A
:1054D0000C6E01A06EEFAAF070EFAAF078EFAAF0C0
:1054E0000550092606500A2207500B2208500C22AC
:1054F000D8900536063607360836D890043203327F
:10550000023201320150021003100410D8A48BEFB4
:10551000AAF08DEFAAF069EFAAF009C001F00AC065
:1055200002F00BC003F00CC004F0120056C05AF099
:1055300057C05BF0000E0001ED6F000EEC6FB4EF92
